:100000000C945D000C9485000C9485000C94850084
:100010000C9485000C9485000C9485000C9485004C
:100020000C9485000C9485000C9485000C9485003C
:100030000C9485000C9485000C9485000C9485002C
:100040000C949A040C9485000C9468040C9442045B
:100050000C9485000C9485000C9485000C9485000C
:100060000C94E4040C9485000000000800020100D8
:100070000003040700000000000000000000000072
:10008000250028002B0000000000240027002A0083
:10009000040404040404040402020202020203032E
:1000A0000303030301020408102040800102040836
:1000B0001020010204081020030611241FBECFEFF8
:1000C000D8E0DEBFCDBF12E0A0E0B1E0E2E3F3E1B3
:1000D00002C005900D92AA33B107D9F723E0AAE335
:1000E000B2E001C01D92AA3AB207E1F710E0CDE5F7
:1000F000D0E004C02197FE010E949109CC35D107C0
:10010000C9F70E9444060C9497090C9400002091B2
:10011000F60281E0213208F044C08091D2028111C0
:10012000FCCF8091F50292E09093D20291E09093FF
:10013000D1029FEF9093D0021092CF022093CE0273
:10014000A5EDB2E0EEEAF2E090E0291331C01092A2
:10015000AD029091AD02880F892B8093AD02809102
:10016000AC02813049F51092AC028091AD028093CF
:10017000BB008091BC0083FDF8CF85EC8093BC0070
:100180008091D2028230E1F38091D0028F3FB1F0B2
:100190008091D0028032A1F08091D002803391F022
:1001A00084E01092D4021092F6021092D3020895C5
:1001B0003D9131939F5FC9CF85EEE0CF80E0F1CFD5
:1001C00082E0EFCF83E0EDCF0895089590E0FC0149
:1001D000EC55FF4F249180579F4FFC018491882359
:1001E00099F090E0880F991FFC01EA57FF4FA59105
:1001F000B491FC01E458FF4F859194918FB7F89426
:10020000EC91E22BEC938FBF0895FC01538D448D4C
:10021000252F30E0842F90E0821B930B541710F0B1
:10022000CF96089501970895FC01918D828D9817BE
:1002300061F0A28DAE0FBF2FB11D5D968C91928D96
:100240009F5F9F73928F90E008958FEF9FEF0895C7
:10025000FC01918D828D981731F0828DE80FF11D90
:10026000858D90E008958FEF9FEF0895FC01918DAB
:10027000228D892F90E0805C9F4F821B91098F73A4
:1002800099270895FC01A48DA80FB92FB11DA35A79
:10029000BF4F2C91848D90E001968F739927848FA6
:1002A000A689B7892C93A089B1898C9183708064C9
:1002B0008C93938D848D981306C00288F389E02D6A
:1002C00080818F7D80830895EF92FF920F931F931B
:1002D000CF93DF93EC0181E0888F9B8D8C8D9813F9
:1002E0001AC0E889F989808185FF15C09FB7F89405
:1002F000EE89FF896083E889F98980818370806451
:1003000080839FBF81E090E0DF91CF911F910F919B
:10031000FF90EF900895F62E0B8D10E00F5F1F4FAA
:100320000F731127E02E8C8D8E110CC00FB607FCB9
:10033000FACFE889F989808185FFF5CFCE010E9447
:100340004201F1CFEB8DEC0FFD2FF11DE35AFF4F72
:10035000F0829FB7F8940B8FEA89FB8980818062D5
:10036000CFCFCF93DF93EC01888D8823B9F0AA8992
:10037000BB89E889F9898C9185FD03C0808186FD60
:100380000DC00FB607FCF7CF8C9185FFF2CF8081AF
:1003900085FFEDCFCE010E944201E9CFDF91CF91E1
:1003A000089587EF92E00E94360121E0892B09F43D
:1003B00020E0822F089580E090E0892B29F00E94B0
:1003C000D10181110C9400000895AF92BF92CF9299
:1003D000DF92EF92FF920F931F93CF93DF936C0105
:1003E0007B018B01040F151FEB015E01AE18BF08E6
:1003F000C017D10759F06991D601ED91FC91019098
:10040000F081E02DC6010995892B79F7C501DF91AF
:10041000CF911F910F91FF90EF90DF90CF90BF9001
:10042000AF90089590E0FC01E859FF4F2491FC0142
:10043000EC55FF4F3491FC01E057FF4FE491EE2360
:10044000C9F0222339F0233001F1A8F4213019F149
:10045000223029F1F0E0EE0FFF1FE458FF4FA59185
:10046000B4918FB7F894EC91611126C030953E237A
:100470003C938FBF08952730A9F02830C9F024306D
:1004800049F7809180008F7D03C0809180008F7735
:1004900080938000DFCF84B58F7784BDDBCF84B5B8
:1004A0008F7DFBCF8091B0008F778093B000D2CF4B
:1004B0008091B0008F7DF9CF3E2BDACF1092AB0246
:1004C0001092AA021092D4021092F6021092D20256
:1004D00081E08093D1021092AC0261E082E10E943F
:1004E000120261E083E10E941202E9EBF0E08081F8
:1004F0008E7F808380818D7F808388E48093B800A5
:1005000085E48093BC0084EE90E09093A9028093F0
:10051000A80285EE90E09093A7028093A60208952A
:100520003FB7F8948091A2029091A302A091A402F7
:10053000B091A50226B5A89B05C02F3F19F00196E2
:10054000A11DB11D3FBFBA2FA92F982F8827BC012D
:10055000CD01620F711D811D911D42E0660F771F55
:10056000881F991F4A95D1F708958F929F92AF9255
:10057000BF92CF92DF92EF92FF924B015C010E94FB
:1005800090026B017C010E9490026C197D098E091A
:100590009F09683E734081059105A8F321E0821A06
:1005A0009108A108B10888EEC80E83E0D81EE11CAE
:1005B000F11C81149104A104B10429F7FF90EF907C
:1005C000DF90CF90BF90AF909F908F90089585ED72
:1005D0008093BC008091BC0084FDFCCF1092D202BD
:1005E000089520917A02260F3327331F21323105D7
:1005F000ECF42091D202FC0190E080E0243069F01C
:1006000082E00895A0917A022191AC01465A5D4F93
:10061000A40FB52FB11D2C930196861798F38091E6
:100620007A02680F60937A0280E0089581E008956D
:100630000895E091AB028091AA02E81730F4F0E04F
:10064000E65CFD4F808190E008958FEF9FEF089565
:100650009091AB028091AA022FEF3FEF981748F4D8
:10066000E92FF0E0E65CFD4F208130E09F5F909342
:10067000AB02C90108958091AA029091AB02891B37
:10068000990B0895CF92DF92EF92FF920F931F93F1
:10069000CF93DF937C01CB018A012091D3022223E7
:1006A00089F0EB016B01C40ED51ECC15DD0569F098
:1006B0006991D701ED91FC910190F081E02DC70186
:1006C0000995F3CF642F0E94F102C801DF91CF9109
:1006D0001F910F91FF90EF90DF90CF900895CF93EF
:1006E000DF931F92CDB7DEB769832091D302222317
:1006F000F9F02091F602203258F021E030E0FC01C0
:100700003383228390E080E00F90DF91CF910895B2
:100710008091D402E82FF0E0EB52FD4F9981908355
:100720008F5F8093D4028093F60281E090E0ECCF5B
:1007300061E0CE0101960E94F102F7CF6295607FE1
:100740004111616021116460FC0125812111686003
:10075000FC01848191E09093D3028093F502109282
:10076000D4021092F60284E993E00E946F030C9485
:100770008700089590E080E00895FB01019000203B
:10078000E9F73197AF01461B570BDC01ED91FC9166
:100790000280F381E02D0994BC0180EA93E00C947F
:1007A000BD030F931F93CF93DF93EC01162F042FFC
:1007B00021E00E949E0320E0402F612FCE010E9485
:1007C0009E038FE890E00197F1F7DF91CF911F91A1
:1007D0000F9108950F931F93CF93DF938C01C62F32
:1007E000D42F62956F700E94D1036C2F6F704D2FC4
:1007F000C801DF91CF911F910F910C94D10340E07C
:1008000061E080EA93E00E94EA038BE39FE10197B5
:10081000F1F70895CF93DF93CDB7DEB728970FB6E2
:10082000F894DEBF0FBECDBF98E0E0E0F1E0DE015E
:10083000119601900D929A95E1F79091A90389176D
:1008400010F08FEF890F90E0880F991F21E030E0C2
:100850002C0F3D1F820F931FFC016081606840E0F8
:1008600080EA93E028960FB6F894DEBF0FBECDBFA6
:10087000DF91CF910C94EA0341E00E94EA0381E00A
:1008800090E008951F920F920FB60F9211242F93AC
:100890003F934F935F936F937F938F939F93AF9308
:1008A000BF93EF93FF9387EF92E00E944201FF9185
:1008B000EF91BF91AF919F918F917F916F915F91D8
:1008C0004F913F912F910F900FBE0F901F90189551
:1008D0001F920F920FB60F9211242F938F939F9315
:1008E000EF93FF93E0910703F09108038081E0917B
:1008F0000D03F0910E0382FD1BC0908180911003C7
:100900008F5F8F7320911103821741F0E0911003E4
:10091000F0E0E950FD4F958F80931003FF91EF9128
:100920009F918F912F910F900FBE0F901F90189550
:100930008081F4CF1F920F920FB60F9211242F9344
:100940003F938F939F93AF93BF9380919E0290911B
:100950009F02A091A002B091A10230919D0223E0DC
:10096000230F2D3758F50196A11DB11D20939D022F
:1009700080939E0290939F02A093A002B093A10245
:100980008091A2029091A302A091A402B091A5022D
:100990000196A11DB11D8093A2029093A302A09382
:1009A000A402B093A502BF91AF919F918F913F9107
:1009B0002F910F900FBE0F901F90189526E8230FD0
:1009C0000296A11DB11DD2CF1F920F920FB60F92AA
:1009D00011242F933F934F935F936F937F938F9344
:1009E0009F93AF93BF93EF93FF938091B900887F5C
:1009F000803609F44AC0F0F5883209F4A7C018F52A
:100A0000803109F49BC0B8F4882309F4F9C0883018
:100A100009F494C0FF91EF91BF91AF919F918F9195
:100A20007F916F915F914F913F912F910F900FBEEA
:100A30000F901F901895883109F488C0803251F7C3
:100A40008093D00214C0803409F49DC040F48033F8
:100A5000B9F38833F9F68093D00285ECB0C08035C5
:100A600009F485C0883509F496C0883499F60E9447
:100A7000E702D0CF883909F48CC038F5883729F0DF
:100A800050F4883611F0803729F683E08093D20243
:100A900010929C0257C0883809F47BC0803919F045
:100AA000803809F0B7CF80919C02803208F071C085
:100AB000E0919C0281E08E0F80939C028091BB00AC
:100AC000F0E0E458FD4F80833DC0803B39F0E0F416
:100AD000803A09F479C0883A09F09CCF84E0809389
:100AE000D20210927B0210927A02E091A802F09159
:100AF000A902099580917A0281110FC081E080934B
:100B00007A0210925A0209C0803C09F4A6CF883CB0
:100B100009F4A3CF883B09F07DCFE0917B0281E00F
:100B20008E0F80937B02F0E0E65AFD4F8081809328
:100B3000BB0090917B0280917A0229C08091AD0226
:100B40008093BB0085EC8093BC0064CF9091CF0272
:100B50008091CE02981758F5E091CF0281E08E0F78
:100B60008093CF02F0E0E255FD4F8081E9CFE09124
:100B7000CF0281E08E0F8093CF028091BB00F0E026
:100B8000E255FD4F80839091CF028091CE0298175D
:100B9000C8F285E8D8CFE091CF0281E08E0F809334
:100BA000CF028091BB00F0E0E255FD4F8083809141
:100BB000D10281115CCF81E08093AC0284EA809302
:100BC000BC001092D20226CF85EC8093BC0010921C
:100BD000D20280919C02803230F4E0919C02F0E0DD
:100BE000E458FD4F108260919C0270E0E091A602F3
:100BF000F091A7028CE792E0099510929C020ACF2F
:100C00001092D00234CFE7EFF2E01382128288EE26
:100C100093E0A0E0B0E084839583A683B7832CE0C3
:100C200031E03183208325EC30E03587248724ECC4
:100C300030E03787268720EC30E0318B208B21ECA9
:100C400030E0338B228B22EC30E0358B248B26EC8A
:100C500030E0378B268B118E128E138E148EE4E9C2
:100C6000F3E01382128284839583A683B7838EE197
:100C700091E091838083E0EAF3E01382128280E3C3
:100C800091E0918380830895789484B5826084BDD7
:100C900084B5816084BD85B5826085BD85B5816080
:100CA00085BD80916E00816080936E0010928100FE
:100CB00080918100826080938100809181008160B9
:100CC000809381008091800081608093800080917A
:100CD000B10084608093B1008091B0008160809306
:100CE000B00080917A00846080937A0080917A00CD
:100CF000826080937A0080917A00816080937A008C
:100D000080917A00806880937A001092C10082E01E
:100D10000E94E60083E00E94E60084E00E94E60074
:100D200085E00E94E60086E00E94E60087E00E94DF
:100D3000E60088E00E94E60089E00E94E6008FEF6E
:100D40008093A50380E28093A40312E01093A9038B
:100D500088E08093A6030E945E0220E040E060E00D
:100D600080EA93E00E949E038BE39DE00197F1F7F8
:100D700040E063E080EA93E00E94D103CBE4D6E454
:100D8000CE010197F1F740E063E080EA93E00E9432
:100D9000D1032197F1F740E063E080EA93E00E94FD
:100DA000D10383E592E00197F1F740E062E080EA49
:100DB00093E00E94D1036091A603606240E080EA64
:100DC00093E00E94EA0384E08093A70340E06CE094
:100DD00080EA93E00E94EA030E94FF031093A803B5
:100DE00040E066E080EA93E00E94EA0320E041E010
:100DF00060E080EA93E00E949E030E945E02809180
:100E0000A40391E09093D3028093F5021092D40250
:100E10001092F6020E948700882361F068E371E077
:100E200087EF92E00E94BD0367E471E087EF92E0F4
:100E30000E94BD030E94FF0310E480E0E82E80E0E2
:100E4000F82E10937C0080917A00806480937A0061
:100E500080917A0086FDFCCF80917800C091790066
:100E6000DC2FC82F209709F425C2C434D10509F01E
:100E700004C161E082E00E94120261E083E00E940E
:100E8000120261E084E00E94120261E085E00E94AB
:100E9000120261E086E00E94120261E087E00E9497
:100EA000120261E088E00E94120261E089E00E9483
:100EB000120262E370E080E090E00E94B50260E020
:100EC00082E00E94120260E083E00E94120260E071
:100ED00084E00E94120260E085E00E94120260E05D
:100EE00086E00E94120260E087E00E94120260E049
:100EF00088E00E94120260E089E00E94120262E330
:100F000070E080E090E00E94B5020E94FF0380E064
:100F10000E940A048AE491E00E94CC0364E670E037
:100F200080E090E00E94B5020E94FF0380E00E94F2
:100F30000A0485E591E00E94CC0381E00E940A0446
:100F400080E691E00E94CC0364E670E080E090E0EF
:100F50000E94B5020E94FF0380E00E940A0489E615
:100F600091E00E94CC0381E00E940A0482E791E0B4
:100F70000E94CC0364E670E080E090E00E94B5023D
:100F80000E94FF0380E00E940A0480E891E00E9432
:100F9000CC0381E00E940A048BE891E00E94CC031C
:100FA00064E670E080E090E00E94B5020E94FF03DA
:100FB00080E00E940A0489E991E00E94CC0381E06C
:100FC0000E940A0486EA91E00E94CC0364E670E085
:100FD00080E090E00E94B5020E94FF0380E00E9442
:100FE0000A0483EB91E00E94CC0381E00E940A0492
:100FF00084EC91E00E94CC0364E670E080E090E035
:101000000E94B5020E94FF0380E00E940A0482ED64
:1010100091E00E94CC0364E670E080E090E00E94E2
:10102000B502C939D10509F086C060E082E00E94AE
:10103000120260E083E00E94120260E084E00E94FD
:10104000120260E085E00E94120261E086E00E94E8
:10105000120260E087E00E94120260E088E00E94D5
:10106000120260E089E00E9412020E94FF0380E009
:101070000E940A0487E092E015C1C236D10541F50D
:1010800061E082E00E94120260E083E00E941202AE
:1010900060E084E00E94120260E085E00E9412029B
:1010A00060E086E00E94120260E087E00E94120287
:1010B00060E088E00E94120260E089E00E94120273
:1010C0000E94FF0380E00E940A048CED91E0A1CF12
:1010D000CA35D10509F05BC060E082E00E941202CF
:1010E00061E083E00E94120260E084E00E9412024C
:1010F00060E085E00E94120260E086E00E94120239
:1011000060E087E00E94120260E088E00E94120224
:1011100060E089E00E9412020E94FF0380E00E94CA
:101120000A0487EE91E00E94CC0364E670E080E060
:1011300090E00E94B502C538D10509F05BC060E0BF
:1011400082E00E94120260E083E00E94120260E0EE
:1011500084E00E94120260E085E00E94120260E0DA
:1011600086E00E94120261E087E00E94120260E0C5
:1011700088E00E94120260E089E00E9412020E9450
:10118000FF0380E00E940A0482E192E08BC0C33535
:10119000D10509F05CC060E082E00E94120260E0CC
:1011A00083E00E94120261E084E00E94120260E08B
:1011B00085E00E94120260E086E00E94120260E078
:1011C00087E00E94120260E088E00E94120260E064
:1011D00089E00E9412020E94FF0380E00E940A043C
:1011E00080EF91E00E94CC0364E670E080E090E044
:1011F0000E94B502CF3F83E0D80709F067C060E0E6
:1012000082E00E94120260E083E00E94120260E02D
:1012100084E00E94120260E085E00E94120260E019
:1012200086E00E94120260E087E00E94120261E004
:1012300088E00E94120260E089E00E9412020E948F
:10124000FF0380E00E940A0480E292E02BC0C43BCE
:10125000D10509F0E6CE60E082E00E94120260E073
:1012600083E00E94120260E084E00E94120261E0CA
:1012700085E00E94120260E086E00E94120260E0B7
:1012800087E00E94120260E088E00E94120260E0A3
:1012900089E00E9412020E94FF0380E00E940A047B
:1012A00089EF91E00E94CC0364E670E080E090E07A
:1012B0000E94B502E114F10409F4C3CD0E94D101EA
:1012C000882309F4BECD0E940000BBCDC115D240D9
:1012D00089F760E082E00E94120260E083E00E94F1
:1012E000120260E084E00E94120260E085E00E9449
:1012F000120260E086E00E94120260E087E00E9435
:10130000120260E088E00E94120261E089E00E941F
:1013100012020E94FF0380E00E940A048DE292E024
:10132000C1CFEE0FFF1F0590F491E02D0994F894C2
:02133000FFCFED
:101332000000400014005400000000006401E501B8
:101342000501B101360114012801000000006F03FC
:101352004203BA0318033B032803190300000000E9
:101362003C04E501BA03B9034C4344206E6F742078
:10137200666F756E642E000D0A0053454C4543544A
:10138200204F4E45003120666F722046414E31009B
:101392003220666F72205456003320666F722041ED
:1013A20043003420666F7220535F504C554745000E
:1013B2003520666F722046414E32003620666F72CB
:1013C200204445534B544F50003720666F72204CD7
:1013D2004947485431003820666F72204C494748CB
:1013E200543200546F2073656520746865207072F2
:1013F200657669006F7573206F707420636C696322
:101402006B00274F4E27616761696E0046414E317E
:10141200206973204F4E005456206973204F4E00AE
:101422004143206973204F4E00535F504C5547454E
:10143200206973204F4E0046414E32206973204F7F
:101442004E004445534B544F50206973204F4E0079
:101452004C4947485431206973204F4E004C49474C
:0A146200485432206973204F4E00F9
:107E0000112484B714BE81FFF0D085E080938100F7
:107E100082E08093C00088E18093C10086E0809377
:107E2000C20080E18093C4008EE0C9D0259A86E02C
:107E300020E33CEF91E0309385002093840096BBD3
:107E4000B09BFECF1D9AA8958150A9F7CC24DD24C4
:107E500088248394B5E0AB2EA1E19A2EF3E0BF2EE7
:107E6000A2D0813461F49FD0082FAFD0023811F036
:107E7000013811F484E001C083E08DD089C08234E0
:107E800011F484E103C0853419F485E0A6D080C0E4
:107E9000853579F488D0E82EFF2485D0082F10E0AE
:107EA000102F00270E291F29000F111F8ED06801E7
:107EB0006FC0863521F484E090D080E0DECF843638
:107EC00009F040C070D06FD0082F6DD080E0C81688
:107ED00080E7D80618F4F601B7BEE895C0E0D1E017
:107EE00062D089930C17E1F7F0E0CF16F0E7DF06D8
:107EF00018F0F601B7BEE89568D007B600FCFDCFD4
:107F0000A601A0E0B1E02C9130E011968C91119780
:107F100090E0982F8827822B932B1296FA010C0160
:107F200087BEE89511244E5F5F4FF1E0A038BF0790
:107F300051F7F601A7BEE89507B600FCFDCF97BE46
:107F4000E89526C08437B1F42ED02DD0F82E2BD052
:107F50003CD0F601EF2C8F010F5F1F4F84911BD097
:107F6000EA94F801C1F70894C11CD11CFA94CF0C13
:107F7000D11C0EC0853739F428D08EE10CD085E9AC
:107F80000AD08FE07ACF813511F488E018D01DD067
:107F900080E101D065CF982F8091C00085FFFCCF94
:107FA0009093C60008958091C00087FFFCCF809118
:107FB000C00084FD01C0A8958091C6000895E0E648
:107FC000F0E098E1908380830895EDDF803219F02E
:107FD00088E0F5DFFFCF84E1DECF1F93182FE3DFCA
:107FE0001150E9F7F2DF1F91089580E0E8DFEE27F6
:047FF000FF270994CA
:027FFE00040479
:0400000300007E007B
:00000001FF
